{
  "contractName": "Spacebear",
  "abi": [
    {
      "inputs": [],
      "stateMutability": "nonpayable",
      "type": "constructor"
    },
    {
      "inputs": [
        {
          "internalType": "address",
          "name": "sender",
          "type": "address"
        },
        {
          "internalType": "uint256",
          "name": "tokenId",
          "type": "uint256"
        },
        {
          "internalType": "address",
          "name": "owner",
          "type": "address"
        }
      ],
      "name": "ERC721IncorrectOwner",
      "type": "error"
    },
    {
      "inputs": [
        {
          "internalType": "address",
          "name": "operator",
          "type": "address"
        },
        {
          "internalType": "uint256",
          "name": "tokenId",
          "type": "uint256"
        }
      ],
      "name": "ERC721InsufficientApproval",
      "type": "error"
    },
    {
      "inputs": [
        {
          "internalType": "address",
          "name": "approver",
          "type": "address"
        }
      ],
      "name": "ERC721InvalidApprover",
      "type": "error"
    },
    {
      "inputs": [
        {
          "internalType": "address",
          "name": "operator",
          "type": "address"
        }
      ],
      "name": "ERC721InvalidOperator",
      "type": "error"
    },
    {
      "inputs": [
        {
          "internalType": "address",
          "name": "owner",
          "type": "address"
        }
      ],
      "name": "ERC721InvalidOwner",
      "type": "error"
    },
    {
      "inputs": [
        {
          "internalType": "address",
          "name": "receiver",
          "type": "address"
        }
      ],
      "name": "ERC721InvalidReceiver",
      "type": "error"
    },
    {
      "inputs": [
        {
          "internalType": "address",
          "name": "sender",
          "type": "address"
        }
      ],
      "name": "ERC721InvalidSender",
      "type": "error"
    },
    {
      "inputs": [
        {
          "internalType": "uint256",
          "name": "tokenId",
          "type": "uint256"
        }
      ],
      "name": "ERC721NonexistentToken",
      "type": "error"
    },
    {
      "inputs": [
        {
          "internalType": "address",
          "name": "owner",
          "type": "address"
        }
      ],
      "name": "OwnableInvalidOwner",
      "type": "error"
    },
    {
      "inputs": [
        {
          "internalType": "address",
          "name": "account",
          "type": "address"
        }
      ],
      "name": "OwnableUnauthorizedAccount",
      "type": "error"
    },
    {
      "anonymous": false,
      "inputs": [
        {
          "indexed": true,
          "internalType": "address",
          "name": "owner",
          "type": "address"
        },
        {
          "indexed": true,
          "internalType": "address",
          "name": "approved",
          "type": "address"
        },
        {
          "indexed": true,
          "internalType": "uint256",
          "name": "tokenId",
          "type": "uint256"
        }
      ],
      "name": "Approval",
      "type": "event"
    },
    {
      "anonymous": false,
      "inputs": [
        {
          "indexed": true,
          "internalType": "address",
          "name": "owner",
          "type": "address"
        },
        {
          "indexed": true,
          "internalType": "address",
          "name": "operator",
          "type": "address"
        },
        {
          "indexed": false,
          "internalType": "bool",
          "name": "approved",
          "type": "bool"
        }
      ],
      "name": "ApprovalForAll",
      "type": "event"
    },
    {
      "anonymous": false,
      "inputs": [
        {
          "indexed": true,
          "internalType": "address",
          "name": "previousOwner",
          "type": "address"
        },
        {
          "indexed": true,
          "internalType": "address",
          "name": "newOwner",
          "type": "address"
        }
      ],
      "name": "OwnershipTransferred",
      "type": "event"
    },
    {
      "anonymous": false,
      "inputs": [
        {
          "indexed": true,
          "internalType": "address",
          "name": "from",
          "type": "address"
        },
        {
          "indexed": true,
          "internalType": "address",
          "name": "to",
          "type": "address"
        },
        {
          "indexed": true,
          "internalType": "uint256",
          "name": "tokenId",
          "type": "uint256"
        }
      ],
      "name": "Transfer",
      "type": "event"
    },
    {
      "inputs": [
        {
          "internalType": "address",
          "name": "to",
          "type": "address"
        },
        {
          "internalType": "uint256",
          "name": "tokenId",
          "type": "uint256"
        }
      ],
      "name": "approve",
      "outputs": [],
      "stateMutability": "nonpayable",
      "type": "function"
    },
    {
      "inputs": [
        {
          "internalType": "address",
          "name": "owner",
          "type": "address"
        }
      ],
      "name": "balanceOf",
      "outputs": [
        {
          "internalType": "uint256",
          "name": "",
          "type": "uint256"
        }
      ],
      "stateMutability": "view",
      "type": "function",
      "constant": true
    },
    {
      "inputs": [
        {
          "internalType": "uint256",
          "name": "tokenId",
          "type": "uint256"
        }
      ],
      "name": "getApproved",
      "outputs": [
        {
          "internalType": "address",
          "name": "",
          "type": "address"
        }
      ],
      "stateMutability": "view",
      "type": "function",
      "constant": true
    },
    {
      "inputs": [
        {
          "internalType": "address",
          "name": "owner",
          "type": "address"
        },
        {
          "internalType": "address",
          "name": "operator",
          "type": "address"
        }
      ],
      "name": "isApprovedForAll",
      "outputs": [
        {
          "internalType": "bool",
          "name": "",
          "type": "bool"
        }
      ],
      "stateMutability": "view",
      "type": "function",
      "constant": true
    },
    {
      "inputs": [],
      "name": "name",
      "outputs": [
        {
          "internalType": "string",
          "name": "",
          "type": "string"
        }
      ],
      "stateMutability": "view",
      "type": "function",
      "constant": true
    },
    {
      "inputs": [],
      "name": "owner",
      "outputs": [
        {
          "internalType": "address",
          "name": "",
          "type": "address"
        }
      ],
      "stateMutability": "view",
      "type": "function",
      "constant": true
    },
    {
      "inputs": [
        {
          "internalType": "uint256",
          "name": "tokenId",
          "type": "uint256"
        }
      ],
      "name": "ownerOf",
      "outputs": [
        {
          "internalType": "address",
          "name": "",
          "type": "address"
        }
      ],
      "stateMutability": "view",
      "type": "function",
      "constant": true
    },
    {
      "inputs": [],
      "name": "renounceOwnership",
      "outputs": [],
      "stateMutability": "nonpayable",
      "type": "function"
    },
    {
      "inputs": [
        {
          "internalType": "address",
          "name": "from",
          "type": "address"
        },
        {
          "internalType": "address",
          "name": "to",
          "type": "address"
        },
        {
          "internalType": "uint256",
          "name": "tokenId",
          "type": "uint256"
        }
      ],
      "name": "safeTransferFrom",
      "outputs": [],
      "stateMutability": "nonpayable",
      "type": "function"
    },
    {
      "inputs": [
        {
          "internalType": "address",
          "name": "from",
          "type": "address"
        },
        {
          "internalType": "address",
          "name": "to",
          "type": "address"
        },
        {
          "internalType": "uint256",
          "name": "tokenId",
          "type": "uint256"
        },
        {
          "internalType": "bytes",
          "name": "data",
          "type": "bytes"
        }
      ],
      "name": "safeTransferFrom",
      "outputs": [],
      "stateMutability": "nonpayable",
      "type": "function"
    },
    {
      "inputs": [
        {
          "internalType": "address",
          "name": "operator",
          "type": "address"
        },
        {
          "internalType": "bool",
          "name": "approved",
          "type": "bool"
        }
      ],
      "name": "setApprovalForAll",
      "outputs": [],
      "stateMutability": "nonpayable",
      "type": "function"
    },
    {
      "inputs": [
        {
          "internalType": "bytes4",
          "name": "interfaceId",
          "type": "bytes4"
        }
      ],
      "name": "supportsInterface",
      "outputs": [
        {
          "internalType": "bool",
          "name": "",
          "type": "bool"
        }
      ],
      "stateMutability": "view",
      "type": "function",
      "constant": true
    },
    {
      "inputs": [],
      "name": "symbol",
      "outputs": [
        {
          "internalType": "string",
          "name": "",
          "type": "string"
        }
      ],
      "stateMutability": "view",
      "type": "function",
      "constant": true
    },
    {
      "inputs": [
        {
          "internalType": "address",
          "name": "from",
          "type": "address"
        },
        {
          "internalType": "address",
          "name": "to",
          "type": "address"
        },
        {
          "internalType": "uint256",
          "name": "tokenId",
          "type": "uint256"
        }
      ],
      "name": "transferFrom",
      "outputs": [],
      "stateMutability": "nonpayable",
      "type": "function"
    },
    {
      "inputs": [
        {
          "internalType": "address",
          "name": "newOwner",
          "type": "address"
        }
      ],
      "name": "transferOwnership",
      "outputs": [],
      "stateMutability": "nonpayable",
      "type": "function"
    },
    {
      "inputs": [
        {
          "internalType": "address",
          "name": "to",
          "type": "address"
        }
      ],
      "name": "safeMint",
      "outputs": [],
      "stateMutability": "nonpayable",
      "type": "function"
    },
    {
      "inputs": [],
      "name": "buyToken",
      "outputs": [],
      "stateMutability": "payable",
      "type": "function",
      "payable": true
    },
    {
      "inputs": [
        {
          "internalType": "uint256",
          "name": "tokenId",
          "type": "uint256"
        }
      ],
      "name": "tokenURI",
      "outputs": [
        {
          "internalType": "string",
          "name": "",
          "type": "string"
        }
      ],
      "stateMutability": "pure",
      "type": "function",
      "constant": true
    }
  ],
  "bytecode": "0x608060405234801562000010575f80fd5b50336040518060400160405280600981526020017f53706163656265617200000000000000000000000000000000000000000000008152506040518060400160405280600381526020017f5342520000000000000000000000000000000000000000000000000000000000815250815f90816200008e919062000455565b508060019081620000a0919062000455565b5050505f73ffffffffffffffffffffffffffffffffffffffff168173ffffffffffffffffffffffffffffffffffffffff160362000116575f6040517f1e4fbdf70000000000000000000000000000000000000000000000000000000081526004016200010d91906200057c565b60405180910390fd5b62000127816200012e60201b60201c565b5062000597565b5f60065f9054906101000a900473ffffffffffffffffffffffffffffffffffffffff1690508160065f6101000a81548173ffffffffffffffffffffffffffffffffffffffff021916908373ffffffffffffffffffffffffffffffffffffffff1602179055508173ffffffffffffffffffffffffffffffffffffffff168173ffffffffffffffffffffffffffffffffffffffff167f8be0079c531659141344cd1fd0a4f28419497f9722a3daafe3b4186f6b6457e060405160405180910390a35050565b5f81519050919050565b7f4e487b71000000000000000000000000000000000000000000000000000000005f52604160045260245ffd5b7f4e487b71000000000000000000000000000000000000000000000000000000005f52602260045260245ffd5b5f60028204905060018216806200026d57607f821691505b60208210810362000283576200028262000228565b5b50919050565b5f819050815f5260205f209050919050565b5f6020601f8301049050919050565b5f82821b905092915050565b5f60088302620002e77fffffffffffffffffffffffffffffffffffffffffffffffffffffffffffffffff82620002aa565b620002f38683620002aa565b95508019841693508086168417925050509392505050565b5f819050919050565b5f819050919050565b5f6200033d6200033762000331846200030b565b62000314565b6200030b565b9050919050565b5f819050919050565b62000358836200031d565b62000370620003678262000344565b848454620002b6565b825550505050565b5f90565b6200038662000378565b620003938184846200034d565b505050565b5b81811015620003ba57620003ae5f826200037c565b60018101905062000399565b5050565b601f8211156200040957620003d38162000289565b620003de846200029b565b81016020851015620003ee578190505b62000406620003fd856200029b565b83018262000398565b50505b505050565b5f82821c905092915050565b5f6200042b5f19846008026200040e565b1980831691505092915050565b5f6200044583836200041a565b9150826002028217905092915050565b6200046082620001f1565b67ffffffffffffffff8111156200047c576200047b620001fb565b5b62000488825462000255565b62000495828285620003be565b5f60209050601f831160018114620004cb575f8415620004b6578287015190505b620004c2858262000438565b86555062000531565b601f198416620004db8662000289565b5f5b828110156200050457848901518255600182019150602085019450602081019050620004dd565b8683101562000524578489015162000520601f8916826200041a565b8355505b6001600288020188555050505b505050505050565b5f73ffffffffffffffffffffffffffffffffffffffff82169050919050565b5f620005648262000539565b9050919050565b620005768162000558565b82525050565b5f602082019050620005915f8301846200056b565b92915050565b61226880620005a55f395ff3fe608060405260043610610108575f3560e01c8063715018a611610094578063a482171911610063578063a482171914610358578063b88d4fde14610362578063c87b56dd1461038a578063e985e9c5146103c6578063f2fde38b1461040257610108565b8063715018a6146102c65780638da5cb5b146102dc57806395d89b4114610306578063a22cb4651461033057610108565b806323b872dd116100db57806323b872dd146101d657806340d097c3146101fe57806342842e0e146102265780636352211e1461024e57806370a082311461028a57610108565b806301ffc9a71461010c57806306fdde0314610148578063081812fc14610172578063095ea7b3146101ae575b5f80fd5b348015610117575f80fd5b50610132600480360381019061012d91906118a5565b61042a565b60405161013f91906118ea565b60405180910390f35b348015610153575f80fd5b5061015c61050b565b604051610169919061198d565b60405180910390f35b34801561017d575f80fd5b50610198600480360381019061019391906119e0565b61059a565b6040516101a59190611a4a565b60405180910390f35b3480156101b9575f80fd5b506101d460048036038101906101cf9190611a8d565b6105b5565b005b3480156101e1575f80fd5b506101fc60048036038101906101f79190611acb565b6105cb565b005b348015610209575f80fd5b50610224600480360381019061021f9190611b1b565b6106ca565b005b348015610231575f80fd5b5061024c60048036038101906102479190611acb565b6106fd565b005b348015610259575f80fd5b50610274600480360381019061026f91906119e0565b61071c565b6040516102819190611a4a565b60405180910390f35b348015610295575f80fd5b506102b060048036038101906102ab9190611b1b565b61072d565b6040516102bd9190611b55565b60405180910390f35b3480156102d1575f80fd5b506102da6107e3565b005b3480156102e7575f80fd5b506102f06107f6565b6040516102fd9190611a4a565b60405180910390f35b348015610311575f80fd5b5061031a61081e565b604051610327919061198d565b60405180910390f35b34801561033b575f80fd5b5061035660048036038101906103519190611b98565b6108ae565b005b6103606108c4565b005b34801561036d575f80fd5b5061038860048036038101906103839190611d02565b61098f565b005b348015610395575f80fd5b506103b060048036038101906103ab91906119e0565b6109b4565b6040516103bd919061198d565b60405180910390f35b3480156103d1575f80fd5b506103ec60048036038101906103e79190611d82565b6109f2565b6040516103f991906118ea565b60405180910390f35b34801561040d575f80fd5b5061042860048036038101906104239190611b1b565b610a80565b005b5f7f80ac58cd000000000000000000000000000000000000000000000000000000007bffffffffffffffffffffffffffffffffffffffffffffffffffffffff1916827bffffffffffffffffffffffffffffffffffffffffffffffffffffffff191614806104f457507f5b5e139f000000000000000000000000000000000000000000000000000000007bffffffffffffffffffffffffffffffffffffffffffffffffffffffff1916827bffffffffffffffffffffffffffffffffffffffffffffffffffffffff1916145b80610504575061050382610b04565b5b9050919050565b60605f805461051990611ded565b80601f016020809104026020016040519081016040528092919081815260200182805461054590611ded565b80156105905780601f1061056757610100808354040283529160200191610590565b820191905f5260205f20905b81548152906001019060200180831161057357829003601f168201915b5050505050905090565b5f6105a482610b6d565b506105ae82610bf3565b9050919050565b6105c782826105c2610c2c565b610c33565b5050565b5f73ffffffffffffffffffffffffffffffffffffffff168273ffffffffffffffffffffffffffffffffffffffff160361063b575f6040517f64a0ae920000000000000000000000000000000000000000000000000000000081526004016106329190611a4a565b60405180910390fd5b5f61064e8383610649610c2c565b610c45565b90508373ffffffffffffffffffffffffffffffffffffffff168173ffffffffffffffffffffffffffffffffffffffff16146106c4578382826040517f64283d7b0000000000000000000000000000000000000000000000000000000081526004016106bb93929190611e1d565b60405180910390fd5b50505050565b6106d2610e50565b5f600754905060075f8154809291906106ea90611e7f565b91905055506106f98282610ed7565b5050565b61071783838360405180602001604052805f81525061098f565b505050565b5f61072682610b6d565b9050919050565b5f8073ffffffffffffffffffffffffffffffffffffffff168273ffffffffffffffffffffffffffffffffffffffff160361079e575f6040517f89c62b640000000000000000000000000000000000000000000000000000000081526004016107959190611a4a565b60405180910390fd5b60035f8373ffffffffffffffffffffffffffffffffffffffff1673ffffffffffffffffffffffffffffffffffffffff1681526020019081526020015f20549050919050565b6107eb610e50565b6107f45f610ef4565b565b5f60065f9054906101000a900473ffffffffffffffffffffffffffffffffffffffff16905090565b60606001805461082d90611ded565b80601f016020809104026020016040519081016040528092919081815260200182805461085990611ded565b80156108a45780601f1061087b576101008083540402835291602001916108a4565b820191905f5260205f20905b81548152906001019060200180831161088757829003601f168201915b5050505050905090565b6108c06108b9610c2c565b8383610fb7565b5050565b5f600754905061090a6040518060400160405280600881526020017f676f7420686572650000000000000000000000000000000000000000000000008152508234611120565b67016345785d8a00006001826109209190611ec6565b61092a9190611ef9565b341461096b576040517f08c379a000000000000000000000000000000000000000000000000000000000815260040161096290611f84565b60405180910390fd5b60075f81548092919061097d90611e7f565b919050555061098c3382610ed7565b50565b61099a8484846105cb565b6109ae6109a5610c2c565b858585856111bf565b50505050565b60606109be61136b565b6001836109cb9190611ec6565b6040516020016109dc929190612090565b6040516020818303038152906040529050919050565b5f60055f8473ffffffffffffffffffffffffffffffffffffffff1673ffffffffffffffffffffffffffffffffffffffff1681526020019081526020015f205f8373ffffffffffffffffffffffffffffffffffffffff1673ffffffffffffffffffffffffffffffffffffffff1681526020019081526020015f205f9054906101000a900460ff16905092915050565b610a88610e50565b5f73ffffffffffffffffffffffffffffffffffffffff168173ffffffffffffffffffffffffffffffffffffffff1603610af8575f6040517f1e4fbdf7000000000000000000000000000000000000000000000000000000008152600401610aef9190611a4a565b60405180910390fd5b610b0181610ef4565b50565b5f7f01ffc9a7000000000000000000000000000000000000000000000000000000007bffffffffffffffffffffffffffffffffffffffffffffffffffffffff1916827bffffffffffffffffffffffffffffffffffffffffffffffffffffffff1916149050919050565b5f80610b788361138b565b90505f73ffffffffffffffffffffffffffffffffffffffff168173ffffffffffffffffffffffffffffffffffffffff1603610bea57826040517f7e273289000000000000000000000000000000000000000000000000000000008152600401610be19190611b55565b60405180910390fd5b80915050919050565b5f60045f8381526020019081526020015f205f9054906101000a900473ffffffffffffffffffffffffffffffffffffffff169050919050565b5f33905090565b610c4083838360016113c4565b505050565b5f80610c508461138b565b90505f73ffffffffffffffffffffffffffffffffffffffff168373ffffffffffffffffffffffffffffffffffffffff1614610c9157610c90818486611583565b5b5f73ffffffffffffffffffffffffffffffffffffffff168173ffffffffffffffffffffffffffffffffffffffff1614610d1c57610cd05f855f806113c4565b600160035f8373ffffffffffffffffffffffffffffffffffffffff1673ffffffffffffffffffffffffffffffffffffffff1681526020019081526020015f205f82825403925050819055505b5f73ffffffffffffffffffffffffffffffffffffffff168573ffffffffffffffffffffffffffffffffffffffff1614610d9b57600160035f8773ffffffffffffffffffffffffffffffffffffffff1673ffffffffffffffffffffffffffffffffffffffff1681526020019081526020015f205f82825401925050819055505b8460025f8681526020019081526020015f205f6101000a81548173ffffffffffffffffffffffffffffffffffffffff021916908373ffffffffffffffffffffffffffffffffffffffff160217905550838573ffffffffffffffffffffffffffffffffffffffff168273ffffffffffffffffffffffffffffffffffffffff167fddf252ad1be2c89b69c2b068fc378daa952ba7f163c4a11628f55a4df523b3ef60405160405180910390a4809150509392505050565b610e58610c2c565b73ffffffffffffffffffffffffffffffffffffffff16610e766107f6565b73ffffffffffffffffffffffffffffffffffffffff1614610ed557610e99610c2c565b6040517f118cdaa7000000000000000000000000000000000000000000000000000000008152600401610ecc9190611a4a565b60405180910390fd5b565b610ef0828260405180602001604052805f815250611646565b5050565b5f60065f9054906101000a900473ffffffffffffffffffffffffffffffffffffffff1690508160065f6101000a81548173ffffffffffffffffffffffffffffffffffffffff021916908373ffffffffffffffffffffffffffffffffffffffff1602179055508173ffffffffffffffffffffffffffffffffffffffff168173ffffffffffffffffffffffffffffffffffffffff167f8be0079c531659141344cd1fd0a4f28419497f9722a3daafe3b4186f6b6457e060405160405180910390a35050565b5f73ffffffffffffffffffffffffffffffffffffffff168273ffffffffffffffffffffffffffffffffffffffff160361102757816040517f5b08ba1800000000000000000000000000000000000000000000000000000000815260040161101e9190611a4a565b60405180910390fd5b8060055f8573ffffffffffffffffffffffffffffffffffffffff1673ffffffffffffffffffffffffffffffffffffffff1681526020019081526020015f205f8473ffffffffffffffffffffffffffffffffffffffff1673ffffffffffffffffffffffffffffffffffffffff1681526020019081526020015f205f6101000a81548160ff0219169083151502179055508173ffffffffffffffffffffffffffffffffffffffff168373ffffffffffffffffffffffffffffffffffffffff167f17307eab39ab6107e8899845ad3d59bd9653f200f220920489ca2b5937696c318360405161111391906118ea565b60405180910390a3505050565b6111ba838383604051602401611138939291906120cd565b6040516020818303038152906040527fca47c4eb000000000000000000000000000000000000000000000000000000007bffffffffffffffffffffffffffffffffffffffffffffffffffffffff19166020820180517bffffffffffffffffffffffffffffffffffffffffffffffffffffffff8381831617835250505050611669565b505050565b5f8373ffffffffffffffffffffffffffffffffffffffff163b1115611364578273ffffffffffffffffffffffffffffffffffffffff1663150b7a02868685856040518563ffffffff1660e01b815260040161121d949392919061215b565b6020604051808303815f875af192505050801561125857506040513d601f19601f8201168201806040525081019061125591906121b9565b60015b6112d9573d805f8114611286576040519150601f19603f3d011682016040523d82523d5f602084013e61128b565b606091505b505f8151036112d157836040517f64a0ae920000000000000000000000000000000000000000000000000000000081526004016112c89190611a4a565b60405180910390fd5b805160208201fd5b63150b7a0260e01b7bffffffffffffffffffffffffffffffffffffffffffffffffffffffff1916817bffffffffffffffffffffffffffffffffffffffffffffffffffffffff19161461136257836040517f64a0ae920000000000000000000000000000000000000000000000000000000081526004016113599190611a4a565b60405180910390fd5b505b5050505050565b606060405180606001604052806027815260200161220c60279139905090565b5f60025f8381526020019081526020015f205f9054906101000a900473ffffffffffffffffffffffffffffffffffffffff169050919050565b80806113fc57505f73ffffffffffffffffffffffffffffffffffffffff168273ffffffffffffffffffffffffffffffffffffffff1614155b1561152e575f61140b84610b6d565b90505f73ffffffffffffffffffffffffffffffffffffffff168373ffffffffffffffffffffffffffffffffffffffff161415801561147557508273ffffffffffffffffffffffffffffffffffffffff168173ffffffffffffffffffffffffffffffffffffffff1614155b8015611488575061148681846109f2565b155b156114ca57826040517fa9fbf51f0000000000000000000000000000000000000000000000000000000081526004016114c19190611a4a565b60405180910390fd5b811561152c57838573ffffffffffffffffffffffffffffffffffffffff168273ffffffffffffffffffffffffffffffffffffffff167f8c5be1e5ebec7d5bd14f71427d1e84f3dd0314c0f7b2291e5b200ac8c7c3b92560405160405180910390a45b505b8360045f8581526020019081526020015f205f6101000a81548173ffffffffffffffffffffffffffffffffffffffff021916908373ffffffffffffffffffffffffffffffffffffffff16021790555050505050565b61158e83838361168c565b611641575f73ffffffffffffffffffffffffffffffffffffffff168373ffffffffffffffffffffffffffffffffffffffff160361160257806040517f7e2732890000000000000000000000000000000000000000000000000000000081526004016115f99190611b55565b60405180910390fd5b81816040517f177e802f0000000000000000000000000000000000000000000000000000000081526004016116389291906121e4565b60405180910390fd5b505050565b611650838361174c565b61166461165b610c2c565b5f8585856111bf565b505050565b5f6a636f6e736f6c652e6c6f6790508151602083015f808383865afa5050505050565b5f8073ffffffffffffffffffffffffffffffffffffffff168373ffffffffffffffffffffffffffffffffffffffff161415801561174357508273ffffffffffffffffffffffffffffffffffffffff168473ffffffffffffffffffffffffffffffffffffffff161480611704575061170384846109f2565b5b8061174257508273ffffffffffffffffffffffffffffffffffffffff1661172a83610bf3565b73ffffffffffffffffffffffffffffffffffffffff16145b5b90509392505050565b5f73ffffffffffffffffffffffffffffffffffffffff168273ffffffffffffffffffffffffffffffffffffffff16036117bc575f6040517f64a0ae920000000000000000000000000000000000000000000000000000000081526004016117b39190611a4a565b60405180910390fd5b5f6117c883835f610c45565b90505f73ffffffffffffffffffffffffffffffffffffffff168173ffffffffffffffffffffffffffffffffffffffff161461183a575f6040517f73c6ac6e0000000000000000000000000000000000000000000000000000000081526004016118319190611a4a565b60405180910390fd5b505050565b5f604051905090565b5f80fd5b5f80fd5b5f7fffffffff0000000000000000000000000000000000000000000000000000000082169050919050565b61188481611850565b811461188e575f80fd5b50565b5f8135905061189f8161187b565b92915050565b5f602082840312156118ba576118b9611848565b5b5f6118c784828501611891565b91505092915050565b5f8115159050919050565b6118e4816118d0565b82525050565b5f6020820190506118fd5f8301846118db565b92915050565b5f81519050919050565b5f82825260208201905092915050565b5f5b8381101561193a57808201518184015260208101905061191f565b5f8484015250505050565b5f601f19601f8301169050919050565b5f61195f82611903565b611969818561190d565b935061197981856020860161191d565b61198281611945565b840191505092915050565b5f6020820190508181035f8301526119a58184611955565b905092915050565b5f819050919050565b6119bf816119ad565b81146119c9575f80fd5b50565b5f813590506119da816119b6565b92915050565b5f602082840312156119f5576119f4611848565b5b5f611a02848285016119cc565b91505092915050565b5f73ffffffffffffffffffffffffffffffffffffffff82169050919050565b5f611a3482611a0b565b9050919050565b611a4481611a2a565b82525050565b5f602082019050611a5d5f830184611a3b565b92915050565b611a6c81611a2a565b8114611a76575f80fd5b50565b5f81359050611a8781611a63565b92915050565b5f8060408385031215611aa357611aa2611848565b5b5f611ab085828601611a79565b9250506020611ac1858286016119cc565b9150509250929050565b5f805f60608486031215611ae257611ae1611848565b5b5f611aef86828701611a79565b9350506020611b0086828701611a79565b9250506040611b11868287016119cc565b9150509250925092565b5f60208284031215611b3057611b2f611848565b5b5f611b3d84828501611a79565b91505092915050565b611b4f816119ad565b82525050565b5f602082019050611b685f830184611b46565b92915050565b611b77816118d0565b8114611b81575f80fd5b50565b5f81359050611b9281611b6e565b92915050565b5f8060408385031215611bae57611bad611848565b5b5f611bbb85828601611a79565b9250506020611bcc85828601611b84565b9150509250929050565b5f80fd5b5f80fd5b7f4e487b71000000000000000000000000000000000000000000000000000000005f52604160045260245ffd5b611c1482611945565b810181811067ffffffffffffffff82111715611c3357611c32611bde565b5b80604052505050565b5f611c4561183f565b9050611c518282611c0b565b919050565b5f67ffffffffffffffff821115611c7057611c6f611bde565b5b611c7982611945565b9050602081019050919050565b828183375f83830152505050565b5f611ca6611ca184611c56565b611c3c565b905082815260208101848484011115611cc257611cc1611bda565b5b611ccd848285611c86565b509392505050565b5f82601f830112611ce957611ce8611bd6565b5b8135611cf9848260208601611c94565b91505092915050565b5f805f8060808587031215611d1a57611d19611848565b5b5f611d2787828801611a79565b9450506020611d3887828801611a79565b9350506040611d49878288016119cc565b925050606085013567ffffffffffffffff811115611d6a57611d6961184c565b5b611d7687828801611cd5565b91505092959194509250565b5f8060408385031215611d9857611d97611848565b5b5f611da585828601611a79565b9250506020611db685828601611a79565b9150509250929050565b7f4e487b71000000000000000000000000000000000000000000000000000000005f52602260045260245ffd5b5f6002820490506001821680611e0457607f821691505b602082108103611e1757611e16611dc0565b5b50919050565b5f606082019050611e305f830186611a3b565b611e3d6020830185611b46565b611e4a6040830184611a3b565b949350505050565b7f4e487b71000000000000000000000000000000000000000000000000000000005f52601160045260245ffd5b5f611e89826119ad565b91507fffffffffffffffffffffffffffffffffffffffffffffffffffffffffffffffff8203611ebb57611eba611e52565b5b600182019050919050565b5f611ed0826119ad565b9150611edb836119ad565b9250828201905080821115611ef357611ef2611e52565b5b92915050565b5f611f03826119ad565b9150611f0e836119ad565b9250828202611f1c816119ad565b91508282048414831517611f3357611f32611e52565b5b5092915050565b7f57726f6e6720616d6f756e74206f662066756e64732073656e740000000000005f82015250565b5f611f6e601a8361190d565b9150611f7982611f3a565b602082019050919050565b5f6020820190508181035f830152611f9b81611f62565b9050919050565b5f81905092915050565b5f611fb682611903565b611fc08185611fa2565b9350611fd081856020860161191d565b80840191505092915050565b7f7370616365626561725f000000000000000000000000000000000000000000005f82015250565b5f612010600a83611fa2565b915061201b82611fdc565b600a82019050919050565b5f819050919050565b61204061203b826119ad565b612026565b82525050565b7f2e6a736f6e0000000000000000000000000000000000000000000000000000005f82015250565b5f61207a600583611fa2565b915061208582612046565b600582019050919050565b5f61209b8285611fac565b91506120a682612004565b91506120b2828461202f565b6020820191506120c18261206e565b91508190509392505050565b5f6060820190508181035f8301526120e58186611955565b90506120f46020830185611b46565b6121016040830184611b46565b949350505050565b5f81519050919050565b5f82825260208201905092915050565b5f61212d82612109565b6121378185612113565b935061214781856020860161191d565b61215081611945565b840191505092915050565b5f60808201905061216e5f830187611a3b565b61217b6020830186611a3b565b6121886040830185611b46565b818103606083015261219a8184612123565b905095945050505050565b5f815190506121b38161187b565b92915050565b5f602082840312156121ce576121cd611848565b5b5f6121db848285016121a5565b91505092915050565b5f6040820190506121f75f830185611a3b565b6122046020830184611b46565b939250505056fe68747470733a2f2f746f646f2d6d6574612e6f6e72656e6465722e636f6d2f6e6674646174612fa264697066735822122081f06568276c34fe0a1d6d443b7f367a2716d11edfb500e4ca77e71aa4f6964e64736f6c63430008150033",
  "immutableReferences": {},
  "source": "// SPDX-License-Identifier: MIT\n// Compatible with OpenZeppelin Contracts ^5.5.0\npragma solidity ^0.8.21;\n\nimport \"@openzeppelin/contracts/token/ERC721/ERC721.sol\";\nimport \"@openzeppelin/contracts/access/Ownable.sol\";\nimport \"@ganache/console.log/console.sol\";\n\ncontract Spacebear is ERC721, Ownable {\n    uint256 private _tokenIdCounter;\n\n    constructor() ERC721(\"Spacebear\", \"SBR\") Ownable(msg.sender) {}\n\n    function _baseURI() internal pure override returns (string memory) {\n        return \"https://todo-meta.onrender.com/nftdata/\";\n    }\n\n    function safeMint(address to) public onlyOwner {\n        uint256 tokenId = _tokenIdCounter;\n        _tokenIdCounter++;\n        _safeMint(to, tokenId);\n    }\n\n    function buyToken() public payable {\n        uint256 tokenId = _tokenIdCounter;\n        console.log(\"got here\", tokenId, msg.value); \n        require(msg.value == (tokenId + 1) * 0.1 ether, \"Wrong amount of funds sent\");\n        _tokenIdCounter++;\n        _safeMint(msg.sender, tokenId);\n    }\n\n    function tokenURI(uint256 tokenId)\n        public\n        pure\n        override(ERC721)\n        returns (string memory)\n    {\n        return string(abi.encodePacked(_baseURI(), \"spacebear_\", tokenId+1, \".json\"));\n    }\n}",
  "sourcePath": "/Users/arijaya/PROJECT/Blockchain/Truffle-project/contracts/Spacebear.sol",
  "compiler": {
    "name": "solc",
    "version": "0.8.21+commit.d9974bed.Emscripten.clang"
  },
  "schemaVersion": "3.4.16",
  "updatedAt": "2025-11-30T03:46:02.293Z",
  "networkType": "ethereum",
  "devdoc": {
    "errors": {
      "ERC721IncorrectOwner(address,uint256,address)": [
        {
          "details": "Indicates an error related to the ownership over a particular token. Used in transfers.",
          "params": {
            "owner": "Address of the current owner of a token.",
            "sender": "Address whose tokens are being transferred.",
            "tokenId": "Identifier number of a token."
          }
        }
      ],
      "ERC721InsufficientApproval(address,uint256)": [
        {
          "details": "Indicates a failure with the `operator`s approval. Used in transfers.",
          "params": {
            "operator": "Address that may be allowed to operate on tokens without being their owner.",
            "tokenId": "Identifier number of a token."
          }
        }
      ],
      "ERC721InvalidApprover(address)": [
        {
          "details": "Indicates a failure with the `approver` of a token to be approved. Used in approvals.",
          "params": {
            "approver": "Address initiating an approval operation."
          }
        }
      ],
      "ERC721InvalidOperator(address)": [
        {
          "details": "Indicates a failure with the `operator` to be approved. Used in approvals.",
          "params": {
            "operator": "Address that may be allowed to operate on tokens without being their owner."
          }
        }
      ],
      "ERC721InvalidOwner(address)": [
        {
          "details": "Indicates that an address can't be an owner. For example, `address(0)` is a forbidden owner in ERC-20. Used in balance queries.",
          "params": {
            "owner": "Address of the current owner of a token."
          }
        }
      ],
      "ERC721InvalidReceiver(address)": [
        {
          "details": "Indicates a failure with the token `receiver`. Used in transfers.",
          "params": {
            "receiver": "Address to which tokens are being transferred."
          }
        }
      ],
      "ERC721InvalidSender(address)": [
        {
          "details": "Indicates a failure with the token `sender`. Used in transfers.",
          "params": {
            "sender": "Address whose tokens are being transferred."
          }
        }
      ],
      "ERC721NonexistentToken(uint256)": [
        {
          "details": "Indicates a `tokenId` whose `owner` is the zero address.",
          "params": {
            "tokenId": "Identifier number of a token."
          }
        }
      ],
      "OwnableInvalidOwner(address)": [
        {
          "details": "The owner is not a valid owner account. (eg. `address(0)`)"
        }
      ],
      "OwnableUnauthorizedAccount(address)": [
        {
          "details": "The caller account is not authorized to perform an operation."
        }
      ]
    },
    "events": {
      "Approval(address,address,uint256)": {
        "details": "Emitted when `owner` enables `approved` to manage the `tokenId` token."
      },
      "ApprovalForAll(address,address,bool)": {
        "details": "Emitted when `owner` enables or disables (`approved`) `operator` to manage all of its assets."
      },
      "Transfer(address,address,uint256)": {
        "details": "Emitted when `tokenId` token is transferred from `from` to `to`."
      }
    },
    "kind": "dev",
    "methods": {
      "approve(address,uint256)": {
        "details": "Gives permission to `to` to transfer `tokenId` token to another account. The approval is cleared when the token is transferred. Only a single account can be approved at a time, so approving the zero address clears previous approvals. Requirements: - The caller must own the token or be an approved operator. - `tokenId` must exist. Emits an {Approval} event."
      },
      "balanceOf(address)": {
        "details": "Returns the number of tokens in ``owner``'s account."
      },
      "getApproved(uint256)": {
        "details": "Returns the account approved for `tokenId` token. Requirements: - `tokenId` must exist."
      },
      "isApprovedForAll(address,address)": {
        "details": "Returns if the `operator` is allowed to manage all of the assets of `owner`. See {setApprovalForAll}"
      },
      "name()": {
        "details": "Returns the token collection name."
      },
      "owner()": {
        "details": "Returns the address of the current owner."
      },
      "ownerOf(uint256)": {
        "details": "Returns the owner of the `tokenId` token. Requirements: - `tokenId` must exist."
      },
      "renounceOwnership()": {
        "details": "Leaves the contract without owner. It will not be possible to call `onlyOwner` functions. Can only be called by the current owner. NOTE: Renouncing ownership will leave the contract without an owner, thereby disabling any functionality that is only available to the owner."
      },
      "safeTransferFrom(address,address,uint256)": {
        "details": "Safely transfers `tokenId` token from `from` to `to`, checking first that contract recipients are aware of the ERC-721 protocol to prevent tokens from being forever locked. Requirements: - `from` cannot be the zero address. - `to` cannot be the zero address. - `tokenId` token must exist and be owned by `from`. - If the caller is not `from`, it must have been allowed to move this token by either {approve} or   {setApprovalForAll}. - If `to` refers to a smart contract, it must implement {IERC721Receiver-onERC721Received}, which is called upon   a safe transfer. Emits a {Transfer} event."
      },
      "safeTransferFrom(address,address,uint256,bytes)": {
        "details": "Safely transfers `tokenId` token from `from` to `to`. Requirements: - `from` cannot be the zero address. - `to` cannot be the zero address. - `tokenId` token must exist and be owned by `from`. - If the caller is not `from`, it must be approved to move this token by either {approve} or {setApprovalForAll}. - If `to` refers to a smart contract, it must implement {IERC721Receiver-onERC721Received}, which is called upon   a safe transfer. Emits a {Transfer} event."
      },
      "setApprovalForAll(address,bool)": {
        "details": "Approve or remove `operator` as an operator for the caller. Operators can call {transferFrom} or {safeTransferFrom} for any token owned by the caller. Requirements: - The `operator` cannot be the address zero. Emits an {ApprovalForAll} event."
      },
      "supportsInterface(bytes4)": {
        "details": "Returns true if this contract implements the interface defined by `interfaceId`. See the corresponding https://eips.ethereum.org/EIPS/eip-165#how-interfaces-are-identified[ERC section] to learn more about how these ids are created. This function call must use less than 30 000 gas."
      },
      "symbol()": {
        "details": "Returns the token collection symbol."
      },
      "tokenURI(uint256)": {
        "details": "Returns the Uniform Resource Identifier (URI) for `tokenId` token."
      },
      "transferFrom(address,address,uint256)": {
        "details": "Transfers `tokenId` token from `from` to `to`. WARNING: Note that the caller is responsible to confirm that the recipient is capable of receiving ERC-721 or else they may be permanently lost. Usage of {safeTransferFrom} prevents loss, though the caller must understand this adds an external call which potentially creates a reentrancy vulnerability. Requirements: - `from` cannot be the zero address. - `to` cannot be the zero address. - `tokenId` token must be owned by `from`. - If the caller is not `from`, it must be approved to move this token by either {approve} or {setApprovalForAll}. Emits a {Transfer} event."
      },
      "transferOwnership(address)": {
        "details": "Transfers ownership of the contract to a new account (`newOwner`). Can only be called by the current owner."
      }
    },
    "version": 1
  },
  "userdoc": {
    "kind": "user",
    "methods": {},
    "version": 1
  }
}